:020000040800F2
:1000000098070020D5010008490900089707000853
:10001000450900085D0600087F1000080000000088
:10002000000000000000000000000000F50A0008C9
:100030006106000800000000DD090008090C000846
:10004000EF010008EF010008EF010008EF010008D0
:10005000EF010008EF010008EF010008EF010008C0
:10006000EF010008EF010008EF010008EF010008B0
:10007000EF010008EF010008EF010008EF010008A0
:10008000EF010008EF010008EF010008EF01000890
:10009000EF010008EF010008EF010008EF01000880
:1000A000EF010008EF010008EF010008EF01000870
:1000B000EF0100086D0C0008EF010008EF010008D7
:1000C000EF010008EF010008EF010008EF01000850
:1000D000EF0100085D0E0008EF010008EF010008C5
:1000E000EF010008EF010008EF010008EF01000830
:1000F000EF010008EF010008EF010008EF01000820
:10010000EF010008EF010008EF010008EF0100080F
:10011000EF010008EF010008EF010008EF010008FF
:10012000EF010008EF010008EF010008EF010008EF
:1001300000F002F800F03FF80AA090E8000C8244BA
:100140008344AAF10107DA4501D100F034F8AFF297
:10015000090EBAE80F0013F0010F18BFFB1A43F0A5
:1001600001031847EC1100000C120000103A24BFE4
:1001700078C878C1FAD8520724BF30C830C144BF0C
:1001800004680C607047000000230024002500264E
:10019000103A28BF78C1FBD8520728BF30C148BFEA
:1001A0000B607047642900F07380002070471FB512
:1001B0001FBD10B510BD00F0A8F91146FFF7F7FFFD
:1001C00000F0C4FF00F0C6F903B4FFF7F2FF03BC70
:1001D00000F05EFF0948804709480047FEE7FEE758
:1001E000FEE7FEE7FEE7FEE7FEE7FEE7FEE7FEE7E7
:1001F00004480549054A064B704700000D0C0008ED
:100200003101000898010020980700209803002081
:1002100098030020704700000FB41CB5074B06AAD6
:100220007B4469460090059800F057F90020694624
:1002300000F066F91CBC5DF814FB0000DD02000054
:1002400070B5044685690068C10601D5302600E016
:100250002026C00707D070BDD4E901213046904761
:10026000206A401C20626D1EF6D570BD70B5044634
:1002700085690078C00707D170BDD4E9012120202D
:100280009047206A401C20626D1EF6D570BD0000AC
:100290002DE9F0410646002410687529314616A55F
:1002A00010D0AFF30080002802DA404213A507E027
:1002B00031688A0701D512A502E0490704D511A5C6
:1002C000012401E0AFF3008000210A2206F1240797
:1002D00009E0B0FBF2FCB0FBF2F302FB1C00303093
:1002E00078541846491C0028F3D123462A46304644
:1002F000BDE8F04100F093B8000000002D000000C0
:100300002B000000200000002DE9F0474FF0000A0C
:1003100089460446C0F820A02046E16888470028A6
:1003200076D0252806D0D4E901219047206A401CC8
:100330002062F1E7E168204600258847C4F81CA048
:1003400006460027C4F818A02A2E09D0304600F02F
:1003500098FE38B304EB8708303EC8F8186019E0FF
:1003600059F8041B204604EB87029161E168884735
:10037000012F064618D1E069002820DA25F0200573
:100380001DE0D8F8180000EB800006EB4000303884
:10039000C8F818002046E1688847064600F071FE5C
:1003A0000028EED1012F0AD02E2E08D12046E16878
:1003B00088477F1C0646022F45F02005C4DBA06954
:1003C000002803DA404245F00105A061E80701D0AA
:1003D00025F01005B6B1A6F14100192802D8203643
:1003E00045F400654A463146204625604D46FFF7F4
:1003F000D9FE58B1012806D0ED1D25F0070000F107
:10040000080989E704E005F1040985E730468AE731
:10041000206ABDE8F08770477047704770472DE944
:10042000F0470D4699469246044600F124080168BB
:10043000880604D5E06921F01001216000E0012068
:10044000A84201DD471B00E00027A1697A1902EBF1
:100450000900081AA0612078C00602D42046FFF7E0
:10046000EFFE002608E0D4E901211AF806009047C3
:10047000206A401C761C20624E45F4DB2078C006C2
:100480000AD52046FFF7DCFE06E0D4E90121302042
:100490009047206A401C2062381EA7F10107F4DC57
:1004A00007E0D4E9012118F805009047206A401CB4
:1004B0002062281EA5F10105F3DC2046FFF7D6FED9
:1004C0002078000602D50220BDE8F0870120FBE776
:1004D00001694A1C02610878704700B58FB0CDE908
:1004E00001310021059105497944CDE903101146F8
:1004F0006846FFF709FF0FB000BD0000E5FFFFFFF2
:100500000A6802F8010B0A607047754600F02CF883
:10051000AE4605006946534620F00700854618B0F0
:1005200020B5FFF765FEBDE820404FF000064FF014
:1005300000074FF000084FF0000B21F00701AC4618
:10054000ACE8C009ACE8C009ACE8C009ACE8C00937
:100550008D46704710B50446AFF300802046BDE8D5
:100560001040FFF731BE0000004870473401002002
:1005700010B51D4800681D490968884233D11C48E0
:1005800000681C49096888422DD11B4800681B4936
:100590000968884227D10021194800F0C6FB19A23A
:1005A0000021012000F02EF916A20121084600F0DA
:1005B00029F919A20021012000F024F900240EE0FD
:1005C0001021194800F0E1F8642000F063FD1021CB
:1005D000154800F0DCF8642000F05CFD641C052C7C
:1005E000EEDB00BFFEE710BD000000204000002051
:1005F00004000020440000200800002048000020E3
:100600000004004020202020202020202020202026
:10061000202020202020000020202054494D455239
:1006200020414C45525400000008014008B501210A
:10063000042000F0E5F910208DF80300ADF800006B
:1006400003208DF802006946034800F00AF81021E3
:10065000014800F09CF808BD0008014000BFFEE71B
:1006600070472DE9F04102460025002600200023B6
:100670000024002791F803C00CF00F0591F803C087
:100680000CF0100CBCF1000F03D091F802C04CEA42
:10069000050591F800C0BCF1000F31D014680020AE
:1006A0002BE04FF0010C0CFA00F3B1F800C00CEA9B
:1006B00003069E4220D183004FF00F0C0CFA03F783
:1006C000BC4305FA03FC4CEA040491F803C0BCF1F6
:1006D000280F06D14FF0010C0CFA00FCC2F814C030
:1006E0000AE091F803C0BCF1480F05D14FF0010CAE
:1006F0000CFA00FCC2F810C0401C0828D1D31460CA
:10070000B1F800C0BCF1FF0F34DD546800202EE0CA
:1007100000F1080C4FF0010808FA0CF3B1F800C022
:100720000CEA03069E4221D183004FF00F0C0CFA15
:1007300003F7BC4305FA03FC4CEA040491F803C038
:10074000BCF1280F05D100F1080C08FA0CF8C2F82A
:10075000148091F803C0BCF1480F07D100F1080CD8
:100760004FF0010808FA0CF8C2F81080401C082865
:10077000CED35460BDE8F0810246002093680B4060
:100780000BB1012000E0002070474161704701611A
:100790007047C160704700BFFEE7000008B5012147
:1007A000042000F02DF90E20ADF8000048208DF84F
:1007B000030003208DF8020069460248FFF751FF4D
:1007C00008BD00000008014010B500F091F8382085
:1007D00000F052F80C2000F04FF8062000F04CF822
:1007E000012000F049F810BD70B504460E460EB960
:1007F000E5B202E004F14000C5B245F0800000F02F
:100800003BF870BD70B505460E4614463146284685
:10081000FFF7EAFF03E014F8010B00F04BF8207833
:100820000028F8D170BD000010B5FF211048FFF777
:10083000B0FF01210F48FFF7A8FF02210D48FFF785
:10084000A6FF00BF04210B48FFF7A1FF022000F024
:1008500021FC80210648FFF78FFF0446042105484C
:10086000FFF793FF04F080000028EBD110BD0000DB
:1008700000100140000C014010B50446FFF7D4FF02
:1008800001210A48FFF781FF02210848FFF77DFF99
:1008900021460748FFF77DFF04210448FFF777FF53
:1008A00004210248FFF771FF10BD0000000C014059
:1008B0000010014010B50446FFF7B6FF01210A48B9
:1008C000FFF765FF02210848FFF75FFF2146074851
:1008D000FFF75FFF04210448FFF759FF0421024896
:1008E000FFF753FF10BD0000000C01400010014055
:1008F00008B50121182000F083F8FF20ADF80000B2
:1009000003208DF8020010208DF8030069460A4884
:10091000FFF7A7FE0720ADF8000003208DF80200C6
:1009200010208DF8030069460448FFF79AFE002165
:10093000034800F0FAF908BD00100140000C014026
:100940000004004000BFFEE7704708B51D208DF889
:10095000000001208DF8010003208DF80200012025
:100960008DF80300684600F001F808BD70B500215D
:1009700000230F22C47804B3154C246804F4E06407
:10098000C4F5E064210AC1F10403CA40447804FAC2
:1009900003F184781440214309010E4C0678A155D7
:1009A000047804F01F050124AC4005786D11AD00FA
:1009B00005F1E025C5F8004109E0047804F01F05C1
:1009C0000124AC40044D0678761145F8264070BDF0
:1009D0000CED00E000E400E080E100E07047000082
:1009E00029B1064AD2690243044BDA6104E0034AA2
:1009F000D2698243014BDA61704700000010024067
:100A000029B1064A92690243044B9A6104E0034A01
:100A100092698243014B9A617047000000100240C6
:100A200030B500210022002400232D4D6D6805F013
:100A30000C0121B1042905D0082923D105E0294D55
:100A4000056022E0274D05601FE0254D6D6805F427
:100A50007012234D6D6805F48034022505EB924237
:100A60001CB9214D554305600BE01D4D6D6805F423
:100A700000351DB11C4D5543056002E0194D55432D
:100A8000056002E0174D056000BF00BF144D6D68A2
:100A900005F0F0010909154D6B5C0568DD40456006
:100AA0000F4D6D6805F4E061090A104D6B5C4568F7
:100AB000DD4085600A4D6D6805F46051C90A0B4D33
:100AC0006B5C4568DD40C560054D6D6805F44041CF
:100AD000890B074D6B5CC568B5FBF3F5056130BD4F
:100AE0000010024000127A0000093D0020000020A2
:100AF00030000020704710B500F002F810BD000073
:100B00000CB50020019000903348006840F480301C
:100B10003149086000BF3048006800F400300090A0
:100B20000198401C0190009818B90198B0F5A06F89
:100B3000F1D12948006800F4003010B10120009084
:100B400001E0002000900098012843D1234800686C
:100B500040F01000214908600846006820F00300BA
:100B600008600846006840F0020008601A484068C3
:100B7000194948600846406848600846406840F4A3
:100B8000806048600846406820F47C104860084651
:100B9000406840F4E81048600846006840F0807003
:100BA000086000BF0C48006800F000700028F9D011
:100BB0000948406820F0030007494860084640683B
:100BC00040F00200486000BF0348406800F00C009D
:100BD0000828F9D10CBD000000100240002002409E
:100BE000042808D14FF0E021096941F004014FF0D9
:100BF000E022116107E04FF0E021096921F00401D2
:100C00004FF0E022116170477047000010B51348A3
:100C1000006840F00100114908600846406810492A
:100C200008400E494860084600680E4908400B49D4
:100C300008600846006820F4802008600846406884
:100C400020F4FE0048604FF41F008860FFF753FF58
:100C50004FF000600449086010BD00000010024021
:100C60000000FFF8FFFFF6FE08ED00E008B50121E7
:100C70001F4800F066F8002839D001211C4800F018
:100C800051F81C480068401C1A4908600846006872
:100C90003C2817DB0020086017480068401C1649F4
:100CA0000860084600683C280CDB002008601348F8
:100CB0000068401C1149086008460068182801DBDC
:100CC000002008600B48006800900B4803680B4840
:100CD0000BA102680D48FFF79FFA0DA201210846FB
:100CE000FFF790FD094A01210846FFF78BFD08BD7B
:100CF0000004004040000020440000204800002084
:100D00002532643A2532643A2532640024010020F9
:100D100020202020202020202020202020202020D3
:100D200020200000CA430282704721B1028842F0AD
:100D30000102028004E002884FF6FE731A4002802E
:100D4000704730B50246002000230024158A05EACA
:100D50000103958905EA010413B10CB1012000E0FB
:100D6000002030BD1AB183890B43838102E083895F
:100D70008B43838170470000002202881D4B9842FC
:100D80000ED01D4B98420BD0B0F1804F08D01B4BBA
:100D9000984205D01A4B984202D01A4B984204D17F
:100DA0004FF68F731A404B881A43174B984207D05F
:100DB000164B984204D04FF6FF431A40CB881A4393
:100DC00002808B8883850B8803850A4B98420BD061
:100DD000094B984208D00E4B984205D00D4B9842D3
:100DE00002D00D4B984201D10B7A038601238382F6
:100DF00070470000002C0140003401400004004016
:100E000000080040000C00400010004000140040AA
:100E10000040014000440140004801403EB5054605
:100E20000C4601210220FFF7DBFDADF80450ADF8C0
:100E300000400020ADF80600ADF802006946064803
:100E4000FFF79AFF012211460348FFF78BFF0121AC
:100E50000148FFF76AFF3EBD0004004010B540F2B4
:100E600025511D4800F04AF810B31B4800F002F964
:100E7000C4B21A48008800F40040C8B91748008876
:100E800000F4804060B10A2C03D000201349088090
:100E900020E01248008840F400401049088019E022
:100EA0000D2C06D10D48008840F480400B49088085
:100EB00010E00A480088C0F30D0009490C540748A7
:100EC0000088401C0549088008460088C72801DDC5
:100ED0000020088010BD0000003801403C000020C8
:100EE0005C00002021B1828942F40052828104E03A
:100EF00082894DF6FF731A408281704770B50246B1
:100F0000002400230025002040F66A16B14200D1DB
:100F100000BFC1F3421501F01F03012606FA03F3D7
:100F2000012D02D19689334006E0022D02D1168AA6
:100F3000334001E0968A33400C12012606FA04F48D
:100F40001688344013B10CB1012000E0002070BDC0
:100F5000F0B50346002400260025002040F66A175D
:100F6000B94200D100BF1846C1F3421401F01F0678
:100F7000012707FA06F5012C01D10C3004E0022C00
:100F800001D1103000E014301AB107682F43076018
:100F900002E00768AF430760F0BD00002DE9F047AD
:100FA00086B005460E460024A24600BFA146002793
:100FB000B08900B100BF2F462C8A4CF6FF70044068
:100FC000F08804432C82AC894EF6F3100440B088BC
:100FD00031890843718908430443AC81AC8A4FF6D8
:100FE000FF400440B0890443AC8201A8FFF718FD1C
:100FF0001F48874202D1DDF810A001E0DDF80CA007
:10100000A88900F4004040B10AEBCA0000EB0A10C6
:1010100031684900B0FBF1F807E00AEBCA0000EBC9
:101020000A1031688900B0FBF1F86420B8FBF0F0D9
:1010300004012009642101FB1089A88900F4004003
:1010400040B1322000EBC900B0FBF1F000F0070026
:10105000044308E0322000EB09106421B0FBF1F0FA
:1010600000F00F0004432C8106B0BDE8F0870000BB
:101070000038014001468888C0F30800704700BF6F
:10108000FEE730380A2801D201207047002070475F
:1010900000BF704770B5044600F010F8012504E069
:1010A0004FF47A7000F02CF86D1C04EBC40000EBD8
:1010B0000410B5EBC00FF3DB70BD000010B56FF08E
:1010C0000400FFF78DFD0A4800680A49B0FBF1F003
:1010D000094908700846007800EB4001C1EBC010D8
:1010E0004FF6FF7101EAC0000449088010BD0000FE
:1010F0000C00002000127A0034000020360000208E
:101100000146114A12884A434FF0E0235A610022F7
:101110009A611A46126942F001021A6100BF4FF04B
:10112000E022106900F001021AB100F48032002AB6
:10113000F5D04FF0E022126922F001024FF0E023D7
:101140001A6100229A61704736000020FFF76EFA9C
:10115000FFF724FBFFF7F9FB41F2873140F2E7305C
:10116000FFF75CFE4FF4165000F0A2F8FFF7C0FB4B
:10117000FFF72AFB00F000F808B530A2002101209B
:10118000FFF740FB32A200210120FFF73BFB0121CA
:101190003248FFF7CAFD4FE004213148FFF7ECFA6F
:1011A000002821D12F480068401C2E4908600846BD
:1011B000006800902C4803682C482DA10268314833
:1011C000FFF72AF830A200210120FFF71BFB33A212
:1011D00000210120FFF716FB00BF04212048FFF784
:1011E000CBFA0028F9D025E008211D48FFF7C4FA02
:1011F00000BB1C480068401E1A4908600846006889
:10120000009019480368194819A102681D48FFF7A2
:1012100003F80BA200210120FFF7F4FA194A00217C
:101220000120FFF7EFFA00BF08210D48FFF7A4FAED
:101230000028F9D0FFF79CF9AEE70000202020201D
:1012400020202020202020202020202020200000DE
:101250002020205745592020202000000004004075
:1012600000080140000000200400002008000020C9
:1012700053544F502D2D2532643A2532643A25328D
:10128000640000004C00002020202020202020208E
:101290002020202020202020000000003139206460
:1012A0006567726565203631207065720000000048
:1012B00010B586B00446012144F20400FFF7A0FBFC
:1012C0004FF40070ADF8140003208DF816001820BC
:1012D0008DF8170005A91C48FFF7C3F94FF480608B
:1012E000ADF8140004208DF8170005A91648FFF783
:1012F000B8F925208DF8000003208DF801008DF845
:10130000020001208DF803006846FFF72FFB0194CF
:101310000020ADF80800ADF80A00ADF80C00ADF8FB
:1013200010000C20ADF80E0001A90848FFF736FEAA
:10133000012240F225510548FFF70AFE012103482A
:10134000FFF7D0FD06B010BD000801400038014095
:1013500070130008000000204C0000006C01000821
:10136000BC1300084C0000204C0700008801000856
:101370000A000000000000000000000000A24A0473
:101380000000000000000000010203040607080935
:10139000000000000102030401020304060708091B
:1013A0000204060800000000000000000000000029
:0C13B00000000000000000000000000031
:0400000508000131BD
:00000001FF
