:020000040800F2
:10000000A0070020D501000831090008D107000829
:100010002D0900084D060008EB1000080000000044
:10002000000000000000000000000000DD0A0008E1
:100030005106000800000000C5090008350C000842
:10004000EF010008EF010008EF010008EF010008D0
:10005000EF010008EF010008EF010008EF010008C0
:10006000EF010008EF010008EF010008EF010008B0
:10007000EF010008EF010008EF010008EF010008A0
:10008000EF010008EF010008EF010008EF01000890
:10009000EF010008EF010008EF010008EF01000880
:1000A000EF010008EF010008EF010008EF01000870
:1000B000EF010008990C0008EF010008EF010008AB
:1000C000EF010008EF010008EF010008EF01000850
:1000D000EF010008C90E0008EF010008EF01000859
:1000E000EF010008EF010008EF010008EF01000830
:1000F000EF010008EF010008EF010008EF01000820
:10010000EF010008EF010008EF010008EF0100080F
:10011000EF010008EF010008EF010008EF010008FF
:10012000EF010008EF010008EF010008EF010008EF
:1001300000F002F800F03FF80AA090E8000C8244BA
:100140008344AAF10107DA4501D100F034F8AFF297
:10015000090EBAE80F0013F0010F18BFFB1A43F0A5
:10016000010318474817000068170000103A24BF21
:1001700078C878C1FAD8520724BF30C830C144BF0C
:1001800004680C607047000000230024002500264E
:10019000103A28BF78C1FBD8520728BF30C148BFEA
:1001A0000B607047642900F07F80002070471FB506
:1001B0001FBD10B510BD00F0FDF91146FFF7F7FFA8
:1001C00001F02EF800F01BFA03B4FFF7F2FF03BCB6
:1001D00000F094FF0948804709480047FEE7FEE722
:1001E000FEE7FEE7FEE7FEE7FEE7FEE7FEE7FEE7E7
:1001F00004480549054A064B70470000390C0008C1
:1002000031010008A0010020A0070020A003002069
:10021000A0030020704700000FB4044910B503AAE2
:10022000029800F0B1F910BC5DF814FB2400002026
:100230000FB41CB5074B06AA7B446946009005988D
:1002400000F089F90020694600F098F91CBC5DF8BF
:1002500014FB00004103000070B504468569006886
:10026000C10601D5302600E02026C00707D070BDAA
:10027000D4E9012130469047206A401C20626D1E5F
:10028000F6D570BD70B5044685690078C00707D102
:1002900070BDD4E9012120209047206A401C2062D3
:1002A0006D1EF6D570BD00002DE9F0410646002414
:1002B00010687529314616A510D0AFF300800028CC
:1002C00002DA404213A507E031688A0701D512A57A
:1002D00002E0490704D511A5012401E0AFF3008035
:1002E00000210A2206F1240709E0B0FBF2FCB0FB72
:1002F000F2F302FB1C00303078541846491C0028E9
:10030000F3D123462A463046BDE8F04100F0C5B897
:10031000000000002D0000002B0000002000000065
:100320002DE9F0474FF0000A89460446C0F820A0A6
:100330002046E1688847002876D0252806D0D4E9F1
:1003400001219047206A401C2062F1E7E1682046C5
:1003500000258847C4F81CA006460027C4F818A04A
:100360002A2E09D0304600F0C2FE38B304EB8708CD
:10037000303EC8F8186019E059F8041B204604EB19
:1003800087029161E1688847012F064618D1E0692C
:10039000002820DA25F020051DE0D8F8180000EB31
:1003A000800006EB40003038C8F818002046E168AD
:1003B0008847064600F09BFE0028EED1012F0AD0A8
:1003C0002E2E08D12046E16888477F1C0646022F62
:1003D00045F02005C4DBA069002803DA404245F05F
:1003E0000105A061E80701D025F01005B6B1A6F11E
:1003F0004100192802D8203645F400654A463146A6
:10040000204625604D46FFF7CDFE58B1012806D0A5
:10041000ED1D25F0070000F1080989E704E005F16A
:10042000040985E730468AE7206ABDE8F08710B501
:10043000203AC0F00B80B1E81850203AA0E81850DC
:10044000B1E81850A0E81850BFF4F5AF5FEA027C9D
:1004500024BFB1E81850A0E8185044BF18C918C00C
:10046000BDE810405FEA827C24BF51F8043B40F8AD
:10047000043B08BF7047D20728BF31F8023B48BF92
:1004800011F8012B28BF20F8023B48BF00F8012BD0
:10049000704770477047704770472DE9F0470D4629
:1004A00099469246044600F124080168880604D55E
:1004B000E06921F01001216000E00120A84201DD87
:1004C000471B00E00027A1697A1902EB0900081A0E
:1004D000A0612078C00602D42046FFF7BDFE0026AA
:1004E00008E0D4E901211AF806009047206A401C70
:1004F000761C20624E45F4DB2078C0060AD52046E3
:10050000FFF7AAFE06E0D4E9012130209047206AD7
:10051000401C2062381EA7F10107F4DC07E0D4E993
:10052000012118F805009047206A401C2062281E0F
:10053000A5F10105F3DC2046FFF7A4FE20780006B4
:1005400002D50220BDE8F0870120FBE701694A1CC3
:1005500002610878704700B58FB0CDE90131002104
:10056000059105497944CDE9031011466846FFF726
:10057000D7FE0FB000BD0000E5FFFFFF0A6802F8DC
:10058000010B0A6070470000074B70B50D467B44B5
:10059000FFF7E1FF0446284600F008F810B14FF0DD
:1005A000FF3070BD204670BD730C0000007B00F072
:1005B00080007047754600F02BF8AE46050069468E
:1005C000534620F00700854618B020B5FFF710FE0F
:1005D000BDE820404FF000064FF000074FF0000844
:1005E0004FF0000B21F00701AC46ACE8C009ACE8C5
:1005F000C009ACE8C009ACE8C0098D46704710B529
:100600000446AFF300802046BDE81040FFF7DCBD94
:10061000004870473C01002008B50121082000F087
:10062000E3F90220ADF8000010208DF8030003204C
:100630008DF802006946044800F030F802210248B3
:1006400000F0C2F808BD0000000C014000BFFEE74A
:100650007047000008B50121182000F0C5F9FF20FF
:10066000ADF8000010208DF8030003208DF8020083
:100670006946084800F012F80720ADF80000102085
:100680008DF8030003208DF802006946024800F04F
:1006900005F808BD00100140000C01402DE9F041B3
:1006A000024600250026002000230024002791F8A0
:1006B00003C00CF00F0591F803C00CF0100CBCF156
:1006C000000F03D091F802C04CEA050591F800C074
:1006D000BCF1000F31D0146800202BE04FF0010C6A
:1006E0000CFA00F3B1F800C00CEA03069E4220D1D8
:1006F00083004FF00F0C0CFA03F7BC4305FA03FC20
:100700004CEA040491F803C0BCF1280F06D14FF065
:10071000010C0CFA00FCC2F814C00AE091F803C006
:10072000BCF1480F05D14FF0010C0CFA00FCC2F8E7
:1007300010C0401C0828D1D31460B1F800C0BCF12F
:10074000FF0F34DD546800202EE000F1080C4FF05C
:10075000010808FA0CF3B1F800C00CEA03069E4247
:1007600021D183004FF00F0C0CFA03F7BC4305FABC
:1007700003FC4CEA040491F803C0BCF1280F05D136
:1007800000F1080C08FA0CF8C2F8148091F803C0C4
:10079000BCF1480F07D100F1080C4FF0010808FA2E
:1007A0000CF8C2F81080401C0828CED35460BDE875
:1007B000F0810246002093680B400BB1012000E05D
:1007C000002070474161704701617047C160704708
:1007D00000BFFEE708B50121042000F005F940F252
:1007E000CE60ADF8000003208DF8020048208DF89F
:1007F000030069460148FFF751FF08BD00080140AA
:1008000010B5FFF727FF382000F054F80C2000F057
:1008100051F8062000F04EF8012000F04BF810BD12
:1008200070B504460E460EB9E5B202E004F1400090
:10083000C5B245F0800000F03DF870BD70B50546CA
:100840000E46144631462846FFF7EAFF03E014F847
:10085000010B00F04DF820780028F8D170BD0000A1
:1008600010B5FF211048FFF7B1FF01210F48FFF736
:10087000A9FF02210D48FFF7A7FF00BF04210B4885
:10088000FFF7A2FF052000F03BFC80210848FFF79E
:1008900090FF044604210548FFF794FF04F0800010
:1008A0000028EBD110BD000000100140000C0140F9
:1008B0000014014010B50446FFF7D2FF01210A4899
:1008C000FFF780FF02210848FFF77CFF2146074819
:1008D000FFF77CFF04210448FFF776FF042102485C
:1008E000FFF770FF10BD0000000C01400010014038
:1008F00010B50446FFF7B4FF01210A48FFF764FF73
:1009000002210848FFF75EFF21460748FFF75EFF18
:1009100004210448FFF758FF04210248FFF752FF63
:1009200010BD0000000C01400010014000BFFEE7B8
:10093000704710B54FF4A06000F03AF810BD000009
:1009400070B5002100230F22C47804B3154C24682D
:1009500004F4E064C4F5E064210AC1F10403CA4070
:10096000447804FA03F184781440214309010E4CC1
:100970000678A155047804F01F050124AC400578E1
:100980006D11AD0005F1E025C5F8004109E00478DE
:1009900004F01F050124AC40044D0678761145F89B
:1009A000264070BD0CED00E000E400E080E100E0D6
:1009B00002490143024A1160704700000000FA0535
:1009C0000CED00E07047000029B1064AD2690243ED
:1009D000044BDA6104E0034AD2698243014BDA61D5
:1009E000704700000010024029B1064A9269024394
:1009F000044B9A6104E0034A92698243014B9A6175
:100A0000704700000010024030B500210022002491
:100A100000232D4D6D6805F00C0121B1042905D08E
:100A2000082923D105E0294D056022E0274D056006
:100A30001FE0254D6D6805F47012234D6D6805F4B7
:100A40008034022505EB92421CB9214D55430560C7
:100A50000BE01D4D6D6805F400351DB11C4D55436F
:100A6000056002E0194D5543056002E0174D056031
:100A700000BF00BF144D6D6805F0F0010909154D68
:100A80006B5C0568DD4045600F4D6D6805F4E06105
:100A9000090A104D6B5C4568DD4085600A4D6D6844
:100AA00005F46051C90A0B4D6B5C4568DD40C560BB
:100AB000054D6D6805F44041890B074D6B5CC568B9
:100AC000B5FBF3F5056130BD0010024000127A005D
:100AD00000093D000000002010000020704710B504
:100AE00000F002F810BD00000CB50020019000904D
:100AF0003348006840F480303149086000BF304816
:100B0000006800F4003000900198401C01900098AB
:100B100018B90198B0F5A06FF1D12948006800F428
:100B2000003010B10120009001E0002000900098FA
:100B3000012843D12348006840F010002149086093
:100B40000846006820F0030008600846006840F08E
:100B5000020008601A484068194948600846406821
:100B600048600846406840F4806048600846406835
:100B700020F47C1048600846406840F4E810486063
:100B80000846006840F08070086000BF0C480068AC
:100B900000F000700028F9D00948406820F00300F8
:100BA000074948600846406840F00200486000BFBE
:100BB0000348406800F00C000828F9D10CBD000083
:100BC000001002400020024070B50446B4F57A7F60
:100BD00010D00B48B0FBF4F501200A490860284604
:100BE00000F0EAFA00200849C1F88401284600F024
:100BF000E3FA03E04FF47A7000F0DEFA70BD000013
:100C000020A107008481214200802142042808D1CC
:100C10004FF0E021096941F004014FF0E022116139
:100C200007E04FF0E021096921F004014FF0E022D4
:100C3000116170477047000010B51348006840F01C
:100C400001001149086008464068104908400E49F3
:100C50004860084600680E4908400B49086008468D
:100C6000006820F4802008600846406820F4FE00F8
:100C700048604FF41F008860FFF731FF4FF00060BD
:100C80000449086010BD0000001002400000FFF899
:100C9000FFFFF6FE08ED00E008B50121244800F052
:100CA0007AF8002842D00121214800F065F8214857
:100CB0000068401C1F490860084600683C2817D19E
:100CC000002008601C480068401C1B49086008465A
:100CD00000683C280CD10020086018480068401CBF
:100CE0001649086008460068182801D100200860ED
:100CF00010480068009010480368104810A102686E
:100D00001248FFF795FA12A201210846FFF796FD57
:100D10000E4A01210846FFF791FD06480368064880
:100D20000268064801680EA0FFF776FA08BD0000C9
:100D300000040040140000201C00002018000020C7
:100D40002532643A2532643A25326400540000208A
:100D500020202020202020202020202020202000B3
:100D6000B5B1C7B0CAB1BCE4A3BA2532643A2532E2
:100D7000643A2532640D0A00CA430282704721B1E9
:100D8000028842F00102028004E002884FF6FE73FE
:100D90001A400280704730B502460020002300242C
:100DA000158A05EA0103958905EA010413B10CB11E
:100DB000012000E0002030BD1AB183890B438381FC
:100DC00002E083898B438381704700000022028800
:100DD0001D4B98420ED01D4B98420BD0B0F1804F66
:100DE00008D01B4B984205D01A4B984202D01A4BA0
:100DF000984204D14FF68F731A404B881A43174B11
:100E0000984207D0164B984204D04FF6FF431A4041
:100E1000CB881A4302808B8883850B8803850A4B15
:100E200098420BD0094B984208D00E4B984205D0FF
:100E30000D4B984202D00D4B984201D10B7A03869C
:100E40000123838270470000002C014000340140E0
:100E50000004004000080040000C0040001000406A
:100E6000001400400040014000440140004801409F
:100E70007FB505460C4601210220FFF7A5FDADF820
:100E80000850ADF804400020ADF80A00ADF80600A7
:100E900001A90C48FFF79AFF012211460948FFF704
:100EA0008BFF1D208DF8000000208DF8010003202D
:100EB0008DF8020001208DF803006846FFF740FD21
:100EC0007FBD00000004004010B540F225511D48D0
:100ED00000F04AF810B31B4800F002F9C4B21A48F7
:100EE000008800F40040C8B91748008800F480402A
:100EF00060B10A2C03D000201349088020E012487A
:100F0000008840F400401049088019E00D2C06D1FB
:100F10000D48008840F480400B49088010E00A48E2
:100F20000088C0F30D0009490C5407480088401C94
:100F30000549088008460088C72801DD0020088090
:100F400010BD00000038014028000020640000208F
:100F500021B1828942F40052828104E082894DF6F7
:100F6000FF731A408281704770B502460024002347
:100F70000025002040F66A16B14200D100BFC1F33F
:100F8000421501F01F03012606FA03F3012D02D1D9
:100F90009689334006E0022D02D1168A334001E0E3
:100FA000968A33400C12012606FA04F4168834405F
:100FB00013B10CB1012000E0002070BDF0B5034674
:100FC000002400260025002040F66A17B94200D10F
:100FD00000BF1846C1F3421401F01F06012707FAAB
:100FE00006F5012C01D10C3004E0022C01D11030A7
:100FF00000E014301AB107682F43076002E0076869
:10100000AF430760F0BD00002DE9F04786B005460C
:101010000E460024A24600BFA1460027B08900B1B9
:1010200000BF2F462C8A4CF6FF700440F088044322
:101030002C82AC894EF6F3100440B0883189084305
:10104000718908430443AC81AC8A4FF6FF400440E9
:10105000B0890443AC8201A8FFF7D6FC1F48874241
:1010600002D1DDF810A001E0DDF80CA0A88900F4A1
:10107000004040B10AEBCA0000EB0A103168490099
:10108000B0FBF1F807E00AEBCA0000EB0A10316888
:101090008900B0FBF1F86420B8FBF0F004012009EE
:1010A000642101FB1089A88900F4004040B132207E
:1010B00000EBC900B0FBF1F000F00700044308E0CA
:1010C000322000EB09106421B0FBF1F000F00F00BA
:1010D00004432C8106B0BDE8F087000000380140D1
:1010E00001468888C0F30800704700BFFEE730382B
:1010F0000A2801D2012070470020704700BF7047C6
:1011000010B502460DE0662107E0032301E05C1EF6
:10111000E3B2002BFBDC4C1EE1B20029F5DC541ECF
:10112000E2B2002AEFDC10BD10B56FF00400FFF74B
:101130006DFD0A4800680A49B0FBF1F009490870E2
:101140000846007800EB4001C1EBC0104FF6FF717C
:1011500001EAC0000449088010BD000040000020E2
:1011600000127A0020000020220000200146114ACF
:1011700012884A434FF0E0235A6100229A611A46CE
:10118000126942F001021A6100BF4FF0E0221069BB
:1011900000F001021AB100F48032002AF5D04FF0BD
:1011A000E022126922F001024FF0E0231A610022CE
:1011B0009A617047220000200146114A12784A4382
:1011C0004FF0E0235A6100229A611A46126942F0F8
:1011D00001021A6100BF4FF0E022106900F0010225
:1011E0001AB100F48032002AF5D04FF0E0221269E3
:1011F00022F001024FF0E0231A6100229A61704749
:101200002000002000BF054A128802F04002002A98
:10121000F9D0C2B2014B1B1D1A8070470038014043
:1012200008B5FFF781FFFFF784FB4FF4165000F07D
:1012300059FAFFF7CFFAFFF7EFF9FFF70BFAFFF7CD
:10124000DFFA48F69F4140F2CF70FFF711FE41F2FE
:101250008830FFF78BFF42E1A1480078012863D175
:10126000A0480068C0EB00109F49096801EB8001AD
:101270009E480068C0EB4012C2EB002001EB00105A
:101280009B490968C1EB01119A4A126802EB81017E
:10129000994A1268C2EB4213C3EB022201EB02111E
:1012A0008842D8D100219548FFF769FD94A200211A
:1012B0000120FFF7C3FA97A200210120FFF7BEFA31
:1012C00097A0FEF7A9FF99A0FEF7A6FFA3A0FEF73F
:1012D000A3FFA348006850B900F07AF90221A148A1
:1012E000FFF767FA18B910219E48FFF76DFA9C487E
:1012F000006801280AD100F0BFF902219948FFF7E0
:1013000058FA18B910219748FFF75EFA002077497C
:10131000086074490860744908607149087075492B
:10132000086091490870DAE008218E48FFF741FA19
:10133000A8B974A200210120FFF780FA8BA2012135
:101340000846FFF77BFA8D4A01210846FFF776FA37
:1013500001216A48FFF713FD01206149087040210F
:101360008048FFF726FA002841D15F4800680090C6
:101370005C4803685D4882A102688048FEF758FF18
:101380007AA201210846FFF759FA7C4A0121084652
:10139000FFF754FA75A200210120FFF74FFA774AB0
:1013A00000210120FFF74AFA6F48007820B94E4823
:1013B0000068401C4C4908606B480078012804D143
:1013C00048480068401C4749086067480078022880
:1013D00004D146480068401C4449086042480368FC
:1013E000404802684148016868A0FEF715FF802167
:1013F0005C48FFF7DEF9012833D13B4800680090D4
:1014000038480368394867A102685C48FEF710FF56
:1014100056A201210846FFF711FA584A0121084651
:10142000FFF70CFA63A200210120FFF707FA4E48EC
:10143000007820B92C480068401E2B4908604A48B3
:101440000078012804D127480068401E254908601B
:1014500045480078022804D124480068401E2349EA
:1014600008604FF400713F48FFF7A3F901280AD143
:101470003D480078401C3C49087008460078032825
:1014800001D1002008704FF480613648FFF791F9D0
:10149000012824D1144800680090124803681348BA
:1014A00040A102683548FEF7C3FE30A2012108467C
:1014B000FFF7C4F9314A01210846FFF7BFF940A2FE
:1014C00000210120FFF7BAF925480068401C244993
:1014D000086008460068022801D100200860BBE6C9
:1014E0003800002030000020340000202C000020B4
:1014F0001C00002014000020180000200004004000
:1015000020202020202020202020202020202020DB
:101510000000000054494D45204F5645522100001F
:1015200054494D45204F5645520000002B2B2B2B84
:101530002B2B2B2B2B2B2B2B2B2B2B2B2B2B2B2BFB
:101540002B2B2B2B2B2B2B2B2B2B2B2B2B2B2B2BEB
:101550002B2B2B2B2B2B2B2B2B2B00000D0A0000C6
:101560003C000020000801403900002020202020FD
:101570002020202020202020200000002C010020FE
:101580002532643A2532643A2532640053455420AA
:1015900054494D453A2532643A2532643A2532643D
:1015A0000D0A00002532643A2532643A2532643A45
:1015B000000000004F7665722054696D653A0000A6
:1015C00053776974636820736F6E6773000000005F
:1015D00070B59CB02C22174911A8FEF728FF2022D5
:1015E00015A109A8FEF723FF20221BA101A8FEF7E1
:1015F0001EFF0A26002418E0002508E009A9095D5D
:1016000011AA32F81100FFF7DFFA681C85B201A8B1
:10161000005D09A9095D11AA32F811104843B0FB19
:10162000F6F0A842EAD8601C84B21D2CE4D31CB0AA
:1016300070BD000084170008080809080809510750
:1016400005060303043706033706030606160305DB
:10165000060A050237000000050504060506030416
:10166000050307020303010603070408060807032E
:10167000050608050600000070B5C0B01C22174919
:1016800039A8FEF7D4FE702214491C311DA8FEF7BC
:10169000CEFE7022124901A8FEF7C9FE05260024DD
:1016A00018E0002508E01DA9095D39AA32F81100EB
:1016B000FFF78AFA681C85B201A8005D1DA9095DC3
:1016C00039AA32F811104843B0FBF6F0A842EAD824
:1016D000601C84B26F2CE4D340B070BDB01700081A
:1016E0003C18000810B586B00446012144F20400FD
:1016F000FFF77AF94FF40070ADF8140003208DF86D
:10170000160018208DF8170005A91C48FEF7C6FF23
:101710004FF48060ADF8140004208DF8170005A97F
:101720001648FEF7BBFF25208DF8000003208DF83A
:1017300001008DF8020001208DF803006846FFF7D4
:10174000FFF801940020ADF80800ADF80A00ADF8EC
:101750000C00ADF810000C20ADF80E0001A90848EF
:10176000FFF752FC012240F225510548FFF726FC05
:1017700001210348FFF7ECFB06B010BD0008014053
:1017800000380140060126014A015D018801B801C7
:10179000EE010B024B029302BA0210037003DC034A
:1017A00017049704270575052006E006AF07E80330
:1017B000F700060126014A015D018801B8012601F2
:1017C0000B024B029302BA021003E803020102016A
:1017D00005060506050605070706050505050303B5
:1017E00005050302040302010201010002020305D0
:1017F0000606060503060508070605030D0D020289
:101800000305030506030201060605060503060196
:101810000D08090A0A09080A0908060D0608090937
:101820000806090806050D02030505030505060857
:101830000706060A09090806050608000201020152
:101840000506050605060507070605050505030344
:10185000050503020403020102010204020202025E
:101860000208040402040202020202080404020440
:101870000204020204020208020402020202020836
:10188000040202020402020202020804020202042A
:101890000202020202080402020204020205020617
:1018A000020402020204020402020C00CC18000826
:1018B00000000020540000006C01000820190008FE
:1018C000540000204C0700008801000800000000C0
:1018D00001020304010203040607080902040608C2
:1018E00000000000000000000000000000000000F8
:1018F00000000000000000000000000000000000E8
:1019000000000000000000000000000000A24A04E7
:10191000000000000000000001020304060708099F
:0400000508000131BD
:00000001FF
