:020000040800F2
:10000000B8070020D5010008650B00086D0700083F
:10001000610B0008E9050008C31200080000000099
:10002000000000000000000000000000110D0008AA
:10003000ED05000800000000F90B0008250E00087F
:10004000EF010008EF010008EF010008EF010008D0
:10005000EF010008EF010008EF010008EF010008C0
:10006000EF010008EF010008EF010008EF010008B0
:10007000EF010008EF010008EF010008EF010008A0
:10008000EF010008EF010008EF010008EF01000890
:10009000EF010008EF010008EF010008EF01000880
:1000A000EF010008EF010008EF010008EF01000870
:1000B000EF010008890E0008EF010008EF010008B9
:1000C000EF010008EF010008EF010008EF01000850
:1000D000EF010008A1100008EF010008EF0100087F
:1000E000EF010008EF010008EF010008EF01000830
:1000F000EF010008EF010008EF010008EF01000820
:10010000EF010008EF010008EF010008EF0100080F
:10011000EF010008EF010008EF010008EF010008FF
:10012000EF010008EF010008EF010008EF010008EF
:1001300000F002F800F03FF80AA090E8000C8244BA
:100140008344AAF10107DA4501D100F034F8AFF297
:10015000090EBAE80F0013F0010F18BFFB1A43F0A5
:10016000010318474413000064130000103A24BF31
:1001700078C878C1FAD8520724BF30C830C144BF0C
:1001800004680C607047000000230024002500264E
:10019000103A28BF78C1FBD8520728BF30C148BFEA
:1001A0000B607047642900F07F80002070471FB506
:1001B0001FBD10B510BD00F0CBF91146FFF7F7FFDA
:1001C00001F000F900F0E9F903B4FFF7F2FF03BC16
:1001D00001F080F80948804709480047FEE7FEE73C
:1001E000FEE7FEE7FEE7FEE7FEE7FEE7FEE7FEE7E7
:1001F00004480549054A064B70470000290E0008CF
:1002000031010008B8010020B8070020B803002021
:10021000B8030020704700000FB4044910B503AACA
:10022000029800F07FF910BC5DF814FB2400002058
:100230000FB41CB5074B06AA7B446946009005988D
:1002400000F057F90020694600F066F91CBC5DF823
:1002500014FB0000DD02000070B5044685690068EB
:10026000C10601D5302600E02026C00707D070BDAA
:10027000D4E9012130469047206A401C20626D1E5F
:10028000F6D570BD70B5044685690078C00707D102
:1002900070BDD4E9012120209047206A401C2062D3
:1002A0006D1EF6D570BD00002DE9F0410646002414
:1002B00010687529314616A510D0AFF300800028CC
:1002C00002DA404213A507E031688A0701D512A57A
:1002D00002E0490704D511A5012401E0AFF3008035
:1002E00000210A2206F1240709E0B0FBF2FCB0FB72
:1002F000F2F302FB1C00303078541846491C0028E9
:10030000F3D123462A463046BDE8F04100F093B8C9
:10031000000000002D0000002B0000002000000065
:100320002DE9F0474FF0000A89460446C0F820A0A6
:100330002046E1688847002876D0252806D0D4E9F1
:1003400001219047206A401C2062F1E7E1682046C5
:1003500000258847C4F81CA006460027C4F818A04A
:100360002A2E09D0304600F0AEFF38B304EB8708E0
:10037000303EC8F8186019E059F8041B204604EB19
:1003800087029161E1688847012F064618D1E0692C
:10039000002820DA25F020051DE0D8F8180000EB31
:1003A000800006EB40003038C8F818002046E168AD
:1003B0008847064600F087FF0028EED1012F0AD0BB
:1003C0002E2E08D12046E16888477F1C0646022F62
:1003D00045F02005C4DBA069002803DA404245F05F
:1003E0000105A061E80701D025F01005B6B1A6F11E
:1003F0004100192802D8203645F400654A463146A6
:10040000204625604D46FFF7CDFE58B1012806D0A5
:10041000ED1D25F0070000F1080989E704E005F16A
:10042000040985E730468AE7206ABDE8F08770470F
:100430007047704770472DE9F0470D469946924640
:10044000044600F124080168880604D5E06921F01B
:100450001001216000E00120A84201DD471B00E0FF
:100460000027A1697A1902EB0900081AA061207817
:10047000C00602D42046FFF7EFFE002608E0D4E9CC
:1004800001211AF806009047206A401C761C206261
:100490004E45F4DB2078C0060AD52046FFF7DCFE87
:1004A00006E0D4E9012130209047206A401C2062F8
:1004B000381EA7F10107F4DC07E0D4E9012118F8A0
:1004C00005009047206A401C2062281EA5F1010506
:1004D000F3DC2046FFF7D6FE2078000602D5022086
:1004E000BDE8F0870120FBE701694A1C026108783A
:1004F000704700B58FB0CDE9013100210591054964
:100500007944CDE9031011466846FFF709FF0FB0A3
:1005100000BD0000E5FFFFFF0A6802F8010B0A605A
:1005200070470000074B70B50D467B44FFF7E1FFB5
:100530000446284600F008F810B14FF0FF3070BDB7
:10054000204670BD7B0E0000007B00F080007047ED
:10055000754600F02BF8AE4605006946534620F07C
:100560000700854618B020B5FFF742FEBDE82040E1
:100570004FF000064FF000074FF000084FF0000B5F
:1005800021F00701AC46ACE8C009ACE8C009ACE812
:10059000C009ACE8C0098D46704710B50446AFF3FA
:1005A00000802046BDE81040FFF70EBE00487047AF
:1005B0005801002008B50121082000F02FFB02207F
:1005C000ADF8000010208DF8030003208DF8020024
:1005D0006946044800F030F80221024800F0C2F8F1
:1005E00008BD0000000C014000BFFEE7704700009E
:1005F00008B50121182000F011FBFF20ADF8000024
:1006000010208DF8030003208DF802006946084889
:1006100000F012F80720ADF8000010208DF803005C
:1006200003208DF802006946024800F005F808BD75
:1006300000100140000C01402DE9F0410246002568
:100640000026002000230024002791F803C00CF0AE
:100650000F0591F803C00CF0100CBCF1000F03D093
:1006600091F802C04CEA050591F800C0BCF1000FFA
:1006700031D0146800202BE04FF0010C0CFA00F38D
:10068000B1F800C00CEA03069E4220D183004FF06F
:100690000F0C0CFA03F7BC4305FA03FC4CEA040404
:1006A00091F803C0BCF1280F06D14FF0010C0CFAF1
:1006B00000FCC2F814C00AE091F803C0BCF1480F76
:1006C00005D14FF0010C0CFA00FCC2F810C0401C20
:1006D0000828D1D31460B1F800C0BCF1FF0F34DD9D
:1006E000546800202EE000F1080C4FF0010808FAD1
:1006F0000CF3B1F800C00CEA03069E4221D183003E
:100700004FF00F0C0CFA03F7BC4305FA03FC4CEA5C
:10071000040491F803C0BCF1280F05D100F1080CC6
:1007200008FA0CF8C2F8148091F803C0BCF1480F25
:1007300007D100F1080C4FF0010808FA0CF8C2F8D4
:100740001080401C0828CED35460BDE8F0810246DA
:10075000002093680B400BB1012000E0002070479F
:100760004161704701617047C160704700BFFEE79B
:1007700008B50121042000F051FA40F2CE60ADF836
:10078000000003208DF8020048208DF80300694620
:100790000148FFF751FF08BD0008014008B50421DA
:1007A0009248FFF7D4FF00282AD10A2000F094FDD8
:1007B00004218E48FFF7CBFF002820D18C48006829
:1007C000401C8B490860084600680090894803680F
:1007D00089488AA102688E48FFF72AFD8DA2002170
:1007E000012000F047F98A4A0021012000F042F977
:1007F00000BF04217D48FFF7AAFF0028F9D0F3E0ED
:1008000008217A48FFF7A3FF50BB0A2000F064FDDF
:1008100008217648FFF79BFF0028F0D17448006854
:10082000401E7349086008460068009071480368DC
:1008300071487CA102687648FFF7FAFC75A2002196
:10084000012000F017F9724A0021012000F012F98E
:1008500000BF08216548FFF77AFF0028F9D0C3E000
:1008600040216248FFF773FF50BB0A2000F034FDBF
:1008700040215E48FFF76BFF0028C0D15D4800684B
:10088000401C5C4908605A480068009008460368AC
:1008900059485AA102685E48FFF7CAFC5DA20021D0
:1008A000012000F0E7F85A4A0021012000F0E2F8A8
:1008B00000BF40214D48FFF74AFF0028F9D093E0E0
:1008C00080214A48FFF743FF50BB0A2000F004FD97
:1008D00080214648FFF73BFF002890D1454800683B
:1008E000401E44490860424800680090084603687A
:1008F00041484CA102684648FFF79AFC45A20021F6
:10090000012000F0B7F8424A0021012000F0B2F8BF
:1009100000BF80213548FFF71AFF0028F9D063E0B7
:100920004FF480613148FFF712FF60BB0A2000F0EE
:10093000D3FC4FF480612D48FFF709FF002853D105
:100940002D480068401C2C49086029480068009028
:1009500028480368084629A102682D48FFF768FC6B
:100960002CA20021012000F085F8294A0021012055
:1009700000F080F800BF4FF480611C48FFF7E7FEED
:100980000028F8D030E04FF400711848FFF7DFFE80
:1009900050BB0A2000F0A0FC4FF400711348FFF791
:1009A000D6FE08BB14480068401E13490860104872
:1009B000006800900F48036808461AA102681448AE
:1009C000FFF736FC13A20021012000F053F8104A73
:1009D0000021012000F04EF800BF4FF400710348E1
:1009E000FFF7B5FE0028F8D008BD00000008014060
:1009F000380000203C0000204000002053544F509D
:100A00002B2B2532643A2532643A253264000000EB
:100A100038010020202020202020202020202020FD
:100A20002020200053544F502D2D2532643A25327A
:100A3000643A25326400000010B5FFF7D9FD382074
:100A400000F052F80C2000F04FF8062000F04CF8AF
:100A5000012000F049F810BD70B504460E460EB9ED
:100A6000E5B202E004F14000C5B245F0800000F0BC
:100A70003BF870BD70B505460E4614463146284613
:100A8000FFF7EAFF03E014F8010B00F04BF82078C1
:100A90000028F8D170BD000010B5FF211048FFF705
:100AA00063FE01210F48FFF75BFE02210D48FFF7AF
:100AB00059FE00BF04210B48FFF754FE0A2000F046
:100AC0000BFC80210648FFF742FE0446042105483E
:100AD000FFF746FE04F080000028EBD110BD0000B7
:100AE00000100140000C014010B50446FFF7D4FF90
:100AF00001210A48FFF734FE02210848FFF730FEC3
:100B000021460748FFF730FE04210448FFF72AFE7C
:100B100004210248FFF724FE10BD0000000C014034
:100B20000010014010B50446FFF7B6FF01210A4846
:100B3000FFF718FE02210848FFF712FE214607487A
:100B4000FFF712FE04210448FFF70CFE04210248BF
:100B5000FFF706FE10BD0000000C01400010014030
:100B600000BFFEE7704710B54FF4A06000F03AF800
:100B700010BD000070B5002100230F22C47804B31B
:100B8000154C246804F4E064C4F5E064210AC1F162
:100B90000403CA40447804FA03F1847814402143E2
:100BA00009010E4C0678A155047804F01F050124B4
:100BB000AC4005786D11AD0005F1E025C5F80041A8
:100BC00009E0047804F01F050124AC40044D0678C8
:100BD000761145F8264070BD0CED00E000E400E021
:100BE00080E100E002490143024A116070470000C1
:100BF0000000FA050CED00E07047000029B1064A3C
:100C0000D2690243044BDA6104E0034AD2698243A9
:100C1000014BDA61704700000010024029B1064A1A
:100C200092690243044B9A6104E0034A9269824349
:100C3000014B9A61704700000010024030B500215E
:100C40000022002400232D4D6D6805F00C0121B118
:100C5000042905D0082923D105E0294D056022E0AB
:100C6000274D05601FE0254D6D6805F47012234D7A
:100C70006D6805F48034022505EB92421CB9214DC4
:100C8000554305600BE01D4D6D6805F400351DB141
:100C90001C4D5543056002E0194D5543056002E0C7
:100CA000174D056000BF00BF144D6D6805F0F001E1
:100CB0000909154D6B5C0568DD4045600F4D6D6899
:100CC00005F4E061090A104D6B5C4568DD40856004
:100CD0000A4D6D6805F46051C90A0B4D6B5C45689F
:100CE000DD40C560054D6D6805F44041890B074D39
:100CF0006B5CC568B5FBF3F5056130BD00100240C3
:100D000000127A0000093D000000002010000020C1
:100D1000704710B500F002F810BD00000CB50020BF
:100D2000019000903348006840F4803031490860F9
:100D300000BF3048006800F4003000900198401C6B
:100D40000190009818B90198B0F5A06FF1D1294829
:100D5000006800F4003010B10120009001E0002094
:100D600000900098012843D12348006840F010000B
:100D7000214908600846006820F003000860084622
:100D8000006840F0020008601A484068194948604D
:100D90000846406848600846406840F48060486003
:100DA0000846406820F47C1048600846406840F4DB
:100DB000E81048600846006840F08070086000BF96
:100DC0000C48006800F000700028F9D0094840681D
:100DD00020F00300074948600846406840F00200E0
:100DE000486000BF0348406800F00C000828F9D1B3
:100DF0000CBD00000010024000200240042808D171
:100E00004FF0E021096941F004014FF0E022116147
:100E100007E04FF0E021096921F004014FF0E022E2
:100E2000116170477047000010B51348006840F02A
:100E300001001149086008464068104908400E4901
:100E40004860084600680E4908400B49086008469B
:100E5000006820F4802008600846406820F4FE0006
:100E600048604FF41F008860FFF753FF4FF00060A9
:100E70000449086010BD0000001002400000FFF8A7
:100E8000FFFFF6FE08ED00E008B50121244800F060
:100E90006EF8002842D00121214800F065F8214871
:100EA0000068401C1F490860084600683C2817D1AC
:100EB000002008601C480068401C1B490860084668
:100EC00000683C280CD10020086018480068401CCD
:100ED0001649086008460068182801D100200860FB
:100EE00010480068009010480368104810A102687C
:100EF0001248FFF79DF912A201210846FFF7BAFD3B
:100F00000E4A01210846FFF7B5FD0648036806486A
:100F10000268064801680EA0FFF77EF908BD0000D0
:100F20000004004014000020180000201C000020D5
:100F30002532643A2532643A25326400600000208C
:100F400020202020202020202020202020202000C1
:100F5000B5B1C7B0CAB1BCE4A3BA2532643A2532F0
:100F6000643A2532640D0A00CA430282704730B5E4
:100F70000246002000230024158A05EA0103958912
:100F800005EA010413B10CB1012000E0002030BDDE
:100F90001AB183890B43838102E083898B43838168
:100FA00070470000002202881D4B98420ED01D4B56
:100FB00098420BD0B0F1804F08D01B4B984205D01F
:100FC0001A4B984202D01A4B984204D14FF68F73B5
:100FD0001A404B881A43174B984207D0164B984239
:100FE00004D04FF6FF431A40CB881A4302808B8807
:100FF00083850B8803850A4B98420BD0094B984296
:1010000008D00E4B984205D00D4B984202D00D4BA4
:10101000984201D10B7A0386012383827047000036
:10102000002C014000340140000400400008004052
:10103000000C00400010004000140040004001403F
:1010400000440140004801407FB505460C4601219F
:101050000220FFF7D3FDADF80850ADF804400020A2
:10106000ADF80A00ADF8060001A90C48FFF79AFF99
:10107000012211460948FFF78BFF1D208DF8000063
:1010800000208DF8010003208DF8020001208DF86A
:1010900003006846FFF76EFD7FBD000000040040BE
:1010A00010B540F225511D4800F04AF810B31B4816
:1010B00000F002F9C4B21A48008800F40040C8B930
:1010C0001748008800F4804060B10A2C03D000204B
:1010D0001349088020E01248008840F4004010497D
:1010E000088019E00D2C06D10D48008840F480409E
:1010F0000B49088010E00A480088C0F30D00094938
:101100000C5407480088401C0549088008460088A0
:10111000C72801DD0020088010BD00000038014014
:10112000280000207000002021B1828942F4005282
:10113000828104E082894DF6FF731A4082817047F4
:1011400070B50246002400230025002040F66A16F0
:10115000B14200D100BFC1F3421501F01F030126C7
:1011600006FA03F3012D02D19689334006E0022DE1
:1011700002D1168A334001E0968A33400C120126D0
:1011800006FA04F41688344013B10CB1012000E0D3
:10119000002070BDF0B50346002400260025002085
:1011A00040F66A17B94200D100BF1846C1F3421495
:1011B00001F01F06012707FA06F5012C01D10C30BA
:1011C00004E0022C01D1103000E014301AB107689D
:1011D0002F43076002E00768AF430760F0BD0000DF
:1011E0002DE9F04786B005460E460024A24600BF12
:1011F000A1460027B08900B100BF2F462C8A4CF6CB
:10120000FF700440F08804432C82AC894EF6F31042
:101210000440B08831890843718908430443AC8194
:10122000AC8A4FF6FF400440B0890443AC8201A869
:10123000FFF704FD1F48874202D1DDF810A001E04E
:10124000DDF80CA0A88900F4004040B10AEBCA0008
:1012500000EB0A1031684900B0FBF1F807E00AEB37
:10126000CA0000EB0A1031688900B0FBF1F8642075
:10127000B8FBF0F004012009642101FB1089A88962
:1012800000F4004040B1322000EBC900B0FBF1F0A7
:1012900000F00700044308E0322000EB091064214D
:1012A000B0FBF1F000F00F0004432C8106B0BDE864
:1012B000F08700000038014001468888C0F308002C
:1012C000704700BFFEE730380A2801D2012070477E
:1012D0000020704700BF704710B502460DE0662140
:1012E00007E0032301E05C1EE3B2002BFBDC4C1E95
:1012F000E1B20029F5DC541EE2B2002AEFDC10BD99
:1013000010B56FF00400FFF779FD0A4800680A493C
:10131000B0FBF1F0094908700846007800EB400185
:10132000C1EBC0104FF6FF7101EAC000044908800C
:1013300010BD00004C00002000127A0020000020A8
:10134000220000200146114A12884A434FF0E02350
:101350005A6100229A611A46126942F001021A612A
:1013600000BF4FF0E022106900F001021AB100F452
:101370008032002AF5D04FF0E022126922F00102FB
:101380004FF0E0231A6100229A617047220000208A
:1013900030B50446002503E06420FFF79DFF6D1C77
:1013A000A542F9DB30BD000000BF054A128802F0FB
:1013B0004002002AF9D0C2B2014B1B1D1A807047AF
:1013C00000380140FFF79CFFFFF7CDFB4FF41650AC
:1013D00000F01AF8FFF7CCF9FFF7ECF8FFF708F97F
:1013E000FFF72AFB41F2873140F2E730FFF72CFE8E
:1013F00041F28830FFF7A6FF04E0FFF7CFF90A209B
:10140000FFF7C6FFF9E7000010B586B004460121DA
:1014100044F20400FFF702FC4FF40070ADF8140032
:1014200003208DF8160018208DF8170005A91C4818
:10143000FFF702F94FF48060ADF8140004208DF836
:10144000170005A91648FFF7F7F825208DF80000CA
:1014500003208DF801008DF8020001208DF80300B3
:101460006846FFF787FB01940020ADF80800ADF84F
:101470000A00ADF80C00ADF810000C20ADF80E001D
:1014800001A90848FFF7ACFE012240F225510548AA
:10149000FFF780FE01210348FFF746FE06B010BDAE
:1014A0000008014000380140C81400080000002076
:1014B000600000006C010008281500086000002092
:1014C0005807000088010008000000000102030422
:1014D00001020304060708090204060800000000D0
:1014E00000000000000000000000000000000000FC
:1014F00000000000000000000000000000000000EC
:1015000014000000000000000000000000000000C7
:101510000000000000A24A040000000000000000DB
:0815200001020304060708099B
:0400000508000131BD
:00000001FF
